{
  "contractName": "CricEther",
  "abi": [
    {
      "inputs": [],
      "stateMutability": "nonpayable",
      "type": "constructor"
    },
    {
      "anonymous": false,
      "inputs": [
        {
          "components": [
            {
              "internalType": "uint256",
              "name": "matchId",
              "type": "uint256"
            },
            {
              "internalType": "uint256",
              "name": "betId",
              "type": "uint256"
            },
            {
              "internalType": "address payable",
              "name": "postedBy",
              "type": "address"
            },
            {
              "internalType": "enum CricEther.Team[2]",
              "name": "playerTeamChoice",
              "type": "uint8[2]"
            },
            {
              "internalType": "uint256",
              "name": "player1Entry",
              "type": "uint256"
            },
            {
              "internalType": "uint256",
              "name": "ratio",
              "type": "uint256"
            },
            {
              "internalType": "uint256",
              "name": "player2Entry",
              "type": "uint256"
            },
            {
              "internalType": "bool",
              "name": "accepted",
              "type": "bool"
            },
            {
              "internalType": "address payable",
              "name": "acceptedBy",
              "type": "address"
            },
            {
              "internalType": "bool",
              "name": "isTransferred",
              "type": "bool"
            }
          ],
          "indexed": false,
          "internalType": "struct CricEther.Bet",
          "name": "",
          "type": "tuple"
        }
      ],
      "name": "betAccepted",
      "type": "event"
    },
    {
      "anonymous": false,
      "inputs": [
        {
          "components": [
            {
              "internalType": "uint256",
              "name": "matchId",
              "type": "uint256"
            },
            {
              "internalType": "uint256",
              "name": "betId",
              "type": "uint256"
            },
            {
              "internalType": "address payable",
              "name": "postedBy",
              "type": "address"
            },
            {
              "internalType": "enum CricEther.Team[2]",
              "name": "playerTeamChoice",
              "type": "uint8[2]"
            },
            {
              "internalType": "uint256",
              "name": "player1Entry",
              "type": "uint256"
            },
            {
              "internalType": "uint256",
              "name": "ratio",
              "type": "uint256"
            },
            {
              "internalType": "uint256",
              "name": "player2Entry",
              "type": "uint256"
            },
            {
              "internalType": "bool",
              "name": "accepted",
              "type": "bool"
            },
            {
              "internalType": "address payable",
              "name": "acceptedBy",
              "type": "address"
            },
            {
              "internalType": "bool",
              "name": "isTransferred",
              "type": "bool"
            }
          ],
          "indexed": false,
          "internalType": "struct CricEther.Bet",
          "name": "",
          "type": "tuple"
        }
      ],
      "name": "betAdded",
      "type": "event"
    },
    {
      "anonymous": false,
      "inputs": [
        {
          "components": [
            {
              "internalType": "uint256",
              "name": "matchId",
              "type": "uint256"
            },
            {
              "internalType": "string",
              "name": "team1",
              "type": "string"
            },
            {
              "internalType": "string",
              "name": "team2",
              "type": "string"
            },
            {
              "internalType": "enum CricEther.MatchState",
              "name": "state",
              "type": "uint8"
            },
            {
              "internalType": "enum CricEther.Team",
              "name": "winner",
              "type": "uint8"
            },
            {
              "internalType": "uint256",
              "name": "totalBets",
              "type": "uint256"
            }
          ],
          "indexed": false,
          "internalType": "struct CricEther.Match",
          "name": "",
          "type": "tuple"
        }
      ],
      "name": "matchAdded",
      "type": "event"
    },
    {
      "anonymous": false,
      "inputs": [
        {
          "components": [
            {
              "internalType": "uint256",
              "name": "matchId",
              "type": "uint256"
            },
            {
              "internalType": "string",
              "name": "team1",
              "type": "string"
            },
            {
              "internalType": "string",
              "name": "team2",
              "type": "string"
            },
            {
              "internalType": "enum CricEther.MatchState",
              "name": "state",
              "type": "uint8"
            },
            {
              "internalType": "enum CricEther.Team",
              "name": "winner",
              "type": "uint8"
            },
            {
              "internalType": "uint256",
              "name": "totalBets",
              "type": "uint256"
            }
          ],
          "indexed": false,
          "internalType": "struct CricEther.Match",
          "name": "",
          "type": "tuple"
        }
      ],
      "name": "matchDeclared",
      "type": "event"
    },
    {
      "anonymous": false,
      "inputs": [
        {
          "components": [
            {
              "internalType": "uint256",
              "name": "matchId",
              "type": "uint256"
            },
            {
              "internalType": "string",
              "name": "team1",
              "type": "string"
            },
            {
              "internalType": "string",
              "name": "team2",
              "type": "string"
            },
            {
              "internalType": "enum CricEther.MatchState",
              "name": "state",
              "type": "uint8"
            },
            {
              "internalType": "enum CricEther.Team",
              "name": "winner",
              "type": "uint8"
            },
            {
              "internalType": "uint256",
              "name": "totalBets",
              "type": "uint256"
            }
          ],
          "indexed": false,
          "internalType": "struct CricEther.Match",
          "name": "",
          "type": "tuple"
        }
      ],
      "name": "matchLive",
      "type": "event"
    },
    {
      "inputs": [],
      "name": "admin",
      "outputs": [
        {
          "internalType": "address payable",
          "name": "",
          "type": "address"
        }
      ],
      "stateMutability": "view",
      "type": "function",
      "constant": true
    },
    {
      "inputs": [
        {
          "internalType": "uint256",
          "name": "",
          "type": "uint256"
        },
        {
          "internalType": "uint256",
          "name": "",
          "type": "uint256"
        }
      ],
      "name": "bets",
      "outputs": [
        {
          "internalType": "uint256",
          "name": "matchId",
          "type": "uint256"
        },
        {
          "internalType": "uint256",
          "name": "betId",
          "type": "uint256"
        },
        {
          "internalType": "address payable",
          "name": "postedBy",
          "type": "address"
        },
        {
          "internalType": "uint256",
          "name": "player1Entry",
          "type": "uint256"
        },
        {
          "internalType": "uint256",
          "name": "ratio",
          "type": "uint256"
        },
        {
          "internalType": "uint256",
          "name": "player2Entry",
          "type": "uint256"
        },
        {
          "internalType": "bool",
          "name": "accepted",
          "type": "bool"
        },
        {
          "internalType": "address payable",
          "name": "acceptedBy",
          "type": "address"
        },
        {
          "internalType": "bool",
          "name": "isTransferred",
          "type": "bool"
        }
      ],
      "stateMutability": "view",
      "type": "function",
      "constant": true
    },
    {
      "inputs": [
        {
          "internalType": "uint256",
          "name": "",
          "type": "uint256"
        }
      ],
      "name": "liveMatches",
      "outputs": [
        {
          "internalType": "uint256",
          "name": "",
          "type": "uint256"
        }
      ],
      "stateMutability": "view",
      "type": "function",
      "constant": true
    },
    {
      "inputs": [
        {
          "internalType": "uint256",
          "name": "",
          "type": "uint256"
        }
      ],
      "name": "matches",
      "outputs": [
        {
          "internalType": "uint256",
          "name": "matchId",
          "type": "uint256"
        },
        {
          "internalType": "string",
          "name": "team1",
          "type": "string"
        },
        {
          "internalType": "string",
          "name": "team2",
          "type": "string"
        },
        {
          "internalType": "enum CricEther.MatchState",
          "name": "state",
          "type": "uint8"
        },
        {
          "internalType": "enum CricEther.Team",
          "name": "winner",
          "type": "uint8"
        },
        {
          "internalType": "uint256",
          "name": "totalBets",
          "type": "uint256"
        }
      ],
      "stateMutability": "view",
      "type": "function",
      "constant": true
    },
    {
      "inputs": [
        {
          "internalType": "uint256",
          "name": "",
          "type": "uint256"
        }
      ],
      "name": "upcomingMatches",
      "outputs": [
        {
          "internalType": "uint256",
          "name": "",
          "type": "uint256"
        }
      ],
      "stateMutability": "view",
      "type": "function",
      "constant": true
    },
    {
      "inputs": [],
      "name": "isAdmin",
      "outputs": [
        {
          "internalType": "bool",
          "name": "",
          "type": "bool"
        }
      ],
      "stateMutability": "view",
      "type": "function",
      "constant": true
    },
    {
      "inputs": [
        {
          "internalType": "string",
          "name": "_team1",
          "type": "string"
        },
        {
          "internalType": "string",
          "name": "_team2",
          "type": "string"
        }
      ],
      "name": "addmatch",
      "outputs": [],
      "stateMutability": "nonpayable",
      "type": "function"
    },
    {
      "inputs": [
        {
          "internalType": "uint256",
          "name": "_matchId",
          "type": "uint256"
        }
      ],
      "name": "getMatch",
      "outputs": [
        {
          "components": [
            {
              "internalType": "uint256",
              "name": "matchId",
              "type": "uint256"
            },
            {
              "internalType": "string",
              "name": "team1",
              "type": "string"
            },
            {
              "internalType": "string",
              "name": "team2",
              "type": "string"
            },
            {
              "internalType": "enum CricEther.MatchState",
              "name": "state",
              "type": "uint8"
            },
            {
              "internalType": "enum CricEther.Team",
              "name": "winner",
              "type": "uint8"
            },
            {
              "internalType": "uint256",
              "name": "totalBets",
              "type": "uint256"
            }
          ],
          "internalType": "struct CricEther.Match",
          "name": "",
          "type": "tuple"
        }
      ],
      "stateMutability": "view",
      "type": "function",
      "constant": true
    },
    {
      "inputs": [],
      "name": "getUpcomingMatches",
      "outputs": [
        {
          "components": [
            {
              "internalType": "uint256",
              "name": "matchId",
              "type": "uint256"
            },
            {
              "internalType": "string",
              "name": "team1",
              "type": "string"
            },
            {
              "internalType": "string",
              "name": "team2",
              "type": "string"
            },
            {
              "internalType": "enum CricEther.MatchState",
              "name": "state",
              "type": "uint8"
            },
            {
              "internalType": "enum CricEther.Team",
              "name": "winner",
              "type": "uint8"
            },
            {
              "internalType": "uint256",
              "name": "totalBets",
              "type": "uint256"
            }
          ],
          "internalType": "struct CricEther.Match[]",
          "name": "",
          "type": "tuple[]"
        }
      ],
      "stateMutability": "view",
      "type": "function",
      "constant": true
    },
    {
      "inputs": [],
      "name": "getLiveMatches",
      "outputs": [
        {
          "components": [
            {
              "internalType": "uint256",
              "name": "matchId",
              "type": "uint256"
            },
            {
              "internalType": "string",
              "name": "team1",
              "type": "string"
            },
            {
              "internalType": "string",
              "name": "team2",
              "type": "string"
            },
            {
              "internalType": "enum CricEther.MatchState",
              "name": "state",
              "type": "uint8"
            },
            {
              "internalType": "enum CricEther.Team",
              "name": "winner",
              "type": "uint8"
            },
            {
              "internalType": "uint256",
              "name": "totalBets",
              "type": "uint256"
            }
          ],
          "internalType": "struct CricEther.Match[]",
          "name": "",
          "type": "tuple[]"
        }
      ],
      "stateMutability": "view",
      "type": "function",
      "constant": true
    },
    {
      "inputs": [
        {
          "internalType": "uint256",
          "name": "_matchId",
          "type": "uint256"
        },
        {
          "internalType": "uint256",
          "name": "_player1Entry",
          "type": "uint256"
        },
        {
          "internalType": "uint256",
          "name": "_ratio",
          "type": "uint256"
        },
        {
          "internalType": "uint256",
          "name": "_player2Entry",
          "type": "uint256"
        },
        {
          "internalType": "uint256",
          "name": "_team",
          "type": "uint256"
        }
      ],
      "name": "postBet",
      "outputs": [],
      "stateMutability": "payable",
      "type": "function",
      "payable": true
    },
    {
      "inputs": [
        {
          "internalType": "uint256",
          "name": "_matchId",
          "type": "uint256"
        }
      ],
      "name": "getBets",
      "outputs": [
        {
          "components": [
            {
              "internalType": "uint256",
              "name": "matchId",
              "type": "uint256"
            },
            {
              "internalType": "uint256",
              "name": "betId",
              "type": "uint256"
            },
            {
              "internalType": "address payable",
              "name": "postedBy",
              "type": "address"
            },
            {
              "internalType": "enum CricEther.Team[2]",
              "name": "playerTeamChoice",
              "type": "uint8[2]"
            },
            {
              "internalType": "uint256",
              "name": "player1Entry",
              "type": "uint256"
            },
            {
              "internalType": "uint256",
              "name": "ratio",
              "type": "uint256"
            },
            {
              "internalType": "uint256",
              "name": "player2Entry",
              "type": "uint256"
            },
            {
              "internalType": "bool",
              "name": "accepted",
              "type": "bool"
            },
            {
              "internalType": "address payable",
              "name": "acceptedBy",
              "type": "address"
            },
            {
              "internalType": "bool",
              "name": "isTransferred",
              "type": "bool"
            }
          ],
          "internalType": "struct CricEther.Bet[]",
          "name": "",
          "type": "tuple[]"
        },
        {
          "internalType": "uint256",
          "name": "",
          "type": "uint256"
        }
      ],
      "stateMutability": "view",
      "type": "function",
      "constant": true
    },
    {
      "inputs": [
        {
          "internalType": "uint256",
          "name": "_matchId",
          "type": "uint256"
        },
        {
          "internalType": "uint256",
          "name": "_betId",
          "type": "uint256"
        },
        {
          "internalType": "uint256",
          "name": "_team",
          "type": "uint256"
        }
      ],
      "name": "acceptBet",
      "outputs": [],
      "stateMutability": "payable",
      "type": "function",
      "payable": true
    },
    {
      "inputs": [
        {
          "internalType": "uint256",
          "name": "_matchId",
          "type": "uint256"
        }
      ],
      "name": "setLive",
      "outputs": [],
      "stateMutability": "nonpayable",
      "type": "function"
    },
    {
      "inputs": [
        {
          "internalType": "uint256",
          "name": "_matchId",
          "type": "uint256"
        },
        {
          "internalType": "bool",
          "name": "isDraw",
          "type": "bool"
        },
        {
          "internalType": "uint256",
          "name": "_winner",
          "type": "uint256"
        }
      ],
      "name": "endMatch",
      "outputs": [],
      "stateMutability": "nonpayable",
      "type": "function"
    },
    {
      "inputs": [],
      "name": "adminWithdrawCommission",
      "outputs": [],
      "stateMutability": "payable",
      "type": "function",
      "payable": true
    },
    {
      "inputs": [],
      "name": "getCommission",
      "outputs": [
        {
          "internalType": "uint256",
          "name": "",
          "type": "uint256"
        }
      ],
      "stateMutability": "view",
      "type": "function",
      "constant": true
    },
    {
      "inputs": [],
      "name": "getBalance",
      "outputs": [
        {
          "internalType": "uint256",
          "name": "",
          "type": "uint256"
        }
      ],
      "stateMutability": "view",
      "type": "function",
      "constant": true
    }
  ],
  "bytecode": "0x608060405234801561001057600080fd5b50336000806101000a81548173ffffffffffffffffffffffffffffffffffffffff021916908373ffffffffffffffffffffffffffffffffffffffff1602179055506000600181905550614ee3806100686000396000f3fe6080604052600436106101095760003560e01c80637e5666fe11610095578063d07f07b711610064578063d07f07b714610360578063e65d6b491461038b578063f6c15619146103b6578063f851a440146103e1578063fe744b751461040c57610109565b80637e5666fe146102b35780639a98fc94146102f0578063a1a2b54b1461030c578063b6db75a01461033557610109565b80634768d4ef116100dc5780634768d4ef146101dd5780634bb4ca561461021f57806350f4c62e1461023b57806356c4afb3146102645780636a09f6be1461026e57610109565b806312065fe01461010e5780631ccf6955146101395780632ddda44e146101775780633d092b3d146101a0575b600080fd5b34801561011a57600080fd5b50610123610449565b6040516101309190612c34565b60405180910390f35b34801561014557600080fd5b50610160600480360381019061015b9190612c8f565b6104aa565b60405161016e929190612fb7565b60405180910390f35b34801561018357600080fd5b5061019e60048036038101906101999190612c8f565b6107dc565b005b3480156101ac57600080fd5b506101c760048036038101906101c29190612c8f565b610a12565b6040516101d49190613158565b60405180910390f35b3480156101e957600080fd5b5061020460048036038101906101ff9190612c8f565b610c45565b604051610216969594939291906131e2565b60405180910390f35b61023960048036038101906102349190613251565b610dab565b005b34801561024757600080fd5b50610262600480360381019061025d91906132d0565b61127b565b005b61026c611a2b565b005b34801561027a57600080fd5b5061029560048036038101906102909190613323565b611afc565b6040516102aa99989796959493929190613381565b60405180910390f35b3480156102bf57600080fd5b506102da60048036038101906102d59190612c8f565b611bb1565b6040516102e79190612c34565b60405180910390f35b61030a6004803603810190610305919061340e565b611bd5565b005b34801561031857600080fd5b50610333600480360381019061032e91906135be565b611fbb565b005b34801561034157600080fd5b5061034a6121bb565b6040516103579190613636565b60405180910390f35b34801561036c57600080fd5b50610375612223565b60405161038291906137a3565b60405180910390f35b34801561039757600080fd5b506103a06124b5565b6040516103ad9190612c34565b60405180910390f35b3480156103c257600080fd5b506103cb612518565b6040516103d891906137a3565b60405180910390f35b3480156103ed57600080fd5b506103f66127aa565b60405161040391906137c5565b60405180910390f35b34801561041857600080fd5b50610433600480360381019061042e9190612c8f565b6127ce565b6040516104409190612c34565b60405180910390f35b60008060009054906101000a900473ffffffffffffffffffffffffffffffffffffffff1673ffffffffffffffffffffffffffffffffffffffff163373ffffffffffffffffffffffffffffffffffffffff16146104a457600080fd5b47905090565b6060600082600360008581526020019081526020016000206000015414610506576040517f08c379a00000000000000000000000000000000000000000000000000000000081526004016104fd9061382c565b60405180910390fd5b6000600360008581526020019081526020016000206004015467ffffffffffffffff81111561053857610537613493565b5b60405190808252806020026020018201604052801561057157816020015b61055e61298a565b8152602001906001900390816105565790505b509050600080600190505b600360008781526020019081526020016000206004015481116107ce5760046000878152602001908152602001600020600082815260200190815260200160002060070160009054906101000a900460ff166107bb576004600087815260200190815260200160002060008281526020019081526020016000206040518061014001604052908160008201548152602001600182015481526020016002820160009054906101000a900473ffffffffffffffffffffffffffffffffffffffff1673ffffffffffffffffffffffffffffffffffffffff1673ffffffffffffffffffffffffffffffffffffffff168152602001600382016002806020026040519081016040528092919082600280156106dd576020028201916000905b82829054906101000a900460ff1660018111156106b7576106b6612d58565b5b815260200190600101906020826000010492830192600103820291508084116106975790505b505050505081526020016004820154815260200160058201548152602001600682015481526020016007820160009054906101000a900460ff161515151581526020016007820160019054906101000a900473ffffffffffffffffffffffffffffffffffffffff1673ffffffffffffffffffffffffffffffffffffffff1673ffffffffffffffffffffffffffffffffffffffff1681526020016007820160159054906101000a900460ff16151515158152505083838061079c9061387b565b9450815181106107af576107ae6138c4565b5b60200260200101819052505b80806107c69061387b565b91505061057c565b508181935093505050915091565b60008054906101000a900473ffffffffffffffffffffffffffffffffffffffff1673ffffffffffffffffffffffffffffffffffffffff163373ffffffffffffffffffffffffffffffffffffffff161461083457600080fd5b8060036000838152602001908152602001600020600001541461088c576040517f08c379a00000000000000000000000000000000000000000000000000000000081526004016108839061393f565b60405180910390fd5b60016003600083815260200190815260200160002060030160006101000a81548160ff021916908360038111156108c6576108c5612d58565b5b0217905550600681908060018154018082558091505060019003906000526020600020016000909190919091505560005b6005805490508110156109bc578160058281548110610919576109186138c4565b5b906000526020600020015414156109a9576005600160058054905061093e919061395f565b8154811061094f5761094e6138c4565b5b90600052602060002001546005828154811061096e5761096d6138c4565b5b9060005260206000200181905550600580548061098e5761098d613993565b5b600190038181906000526020600020016000905590556109bc565b80806109b49061387b565b9150506108f7565b506109c6816127f2565b7fc76b8bef94965b3175ea9b452d79a4813cddbad4ae580948c9194b41738cd2eb60036000838152602001908152602001600020604051610a079190613bf9565b60405180910390a150565b610a1a612a13565b81600360008481526020019081526020016000206000015414610a72576040517f08c379a0000000000000000000000000000000000000000000000000000000008152600401610a699061393f565b60405180910390fd5b600360008381526020019081526020016000206040518060c001604052908160008201548152602001600182018054610aaa90613a22565b80601f0160208091040260200160405190810160405280929190818152602001828054610ad690613a22565b8015610b235780601f10610af857610100808354040283529160200191610b23565b820191906000526020600020905b815481529060010190602001808311610b0657829003601f168201915b50505050508152602001600282018054610b3c90613a22565b80601f0160208091040260200160405190810160405280929190818152602001828054610b6890613a22565b8015610bb55780601f10610b8a57610100808354040283529160200191610bb5565b820191906000526020600020905b815481529060010190602001808311610b9857829003601f168201915b505050505081526020016003820160009054906101000a900460ff166003811115610be357610be2612d58565b5b6003811115610bf557610bf4612d58565b5b81526020016003820160019054906101000a900460ff166001811115610c1e57610c1d612d58565b5b6001811115610c3057610c2f612d58565b5b81526020016004820154815250509050919050565b6003602052806000526040600020600091509050806000015490806001018054610c6e90613a22565b80601f0160208091040260200160405190810160405280929190818152602001828054610c9a90613a22565b8015610ce75780601f10610cbc57610100808354040283529160200191610ce7565b820191906000526020600020905b815481529060010190602001808311610cca57829003601f168201915b505050505090806002018054610cfc90613a22565b80601f0160208091040260200160405190810160405280929190818152602001828054610d2890613a22565b8015610d755780601f10610d4a57610100808354040283529160200191610d75565b820191906000526020600020905b815481529060010190602001808311610d5857829003601f168201915b5050505050908060030160009054906101000a900460ff16908060030160019054906101000a900460ff16908060040154905086565b60008054906101000a900473ffffffffffffffffffffffffffffffffffffffff1673ffffffffffffffffffffffffffffffffffffffff163373ffffffffffffffffffffffffffffffffffffffff161415610e0457600080fd5b82600360008581526020019081526020016000206000015414610e5c576040517f08c379a0000000000000000000000000000000000000000000000000000000008152600401610e539061393f565b60405180910390fd5b816004600085815260200190815260200160002060008481526020019081526020016000206001015414610ec5576040517f08c379a0000000000000000000000000000000000000000000000000000000008152600401610ebc90613c67565b60405180910390fd5b3373ffffffffffffffffffffffffffffffffffffffff1660046000858152602001908152602001600020600084815260200190815260200160002060020160009054906101000a900473ffffffffffffffffffffffffffffffffffffffff1673ffffffffffffffffffffffffffffffffffffffff161415610f7b576040517f08c379a0000000000000000000000000000000000000000000000000000000008152600401610f7290613cd3565b60405180910390fd5b806001811115610f8e57610f8d612d58565b5b6001811115610fa057610f9f612d58565b5b600460008581526020019081526020016000206000848152602001908152602001600020600301600060028110610fda57610fd96138c4565b5b602091828204019190069054906101000a900460ff16600181111561100257611001612d58565b5b1415611043576040517f08c379a000000000000000000000000000000000000000000000000000000000815260040161103a90613d3f565b60405180910390fd5b3460046000858152602001908152602001600020600084815260200190815260200160002060060154146110ac576040517f08c379a00000000000000000000000000000000000000000000000000000000081526004016110a390613dd1565b60405180910390fd5b60008114806110bb5750600181145b6110fa576040517f08c379a00000000000000000000000000000000000000000000000000000000081526004016110f190613e3d565b60405180910390fd5b80600181111561110d5761110c612d58565b5b600460008581526020019081526020016000206000848152602001908152602001600020600301600160028110611147576111466138c4565b5b602091828204019190066101000a81548160ff0219169083600181111561117157611170612d58565b5b02179055503360046000858152602001908152602001600020600084815260200190815260200160002060070160016101000a81548173ffffffffffffffffffffffffffffffffffffffff021916908373ffffffffffffffffffffffffffffffffffffffff160217905550600160046000858152602001908152602001600020600084815260200190815260200160002060070160006101000a81548160ff0219169083151502179055507f0a7502056bc497646dbf522d037e0988110332821e976cb62a5836de17e51df560046000858152602001908152602001600020600084815260200190815260200160002060405161126e9190614cf2565b60405180910390a1505050565b60008054906101000a900473ffffffffffffffffffffffffffffffffffffffff1673ffffffffffffffffffffffffffffffffffffffff163373ffffffffffffffffffffffffffffffffffffffff16146112d357600080fd5b8260036000858152602001908152602001600020600001541461132b576040517f08c379a00000000000000000000000000000000000000000000000000000000081526004016113229061393f565b60405180910390fd5b600081148061133a5750600181145b611379576040517f08c379a000000000000000000000000000000000000000000000000000000000815260040161137090613e3d565b60405180910390fd5b60008083156113c557600380600087815260200190815260200160002060030160006101000a81548160ff021916908360038111156113bb576113ba612d58565b5b0217905550611492565b60026003600087815260200190815260200160002060030160006101000a81548160ff021916908360038111156113ff576113fe612d58565b5b021790555060008314156114515760006003600087815260200190815260200160002060030160016101000a81548160ff0219169083600181111561144757611446612d58565b5b0217905550611491565b60016003600087815260200190815260200160002060030160016101000a81548160ff0219169083600181111561148b5761148a612d58565b5b02179055505b5b6000600190505b600360008781526020019081526020016000206004015481116119635760006004600088815260200190815260200160002060008381526020019081526020016000206040518061014001604052908160008201548152602001600182015481526020016002820160009054906101000a900473ffffffffffffffffffffffffffffffffffffffff1673ffffffffffffffffffffffffffffffffffffffff1673ffffffffffffffffffffffffffffffffffffffff168152602001600382016002806020026040519081016040528092919082600280156115c3576020028201916000905b82829054906101000a900460ff16600181111561159d5761159c612d58565b5b8152602001906001019060208260000104928301926001038202915080841161157d5790505b505050505081526020016004820154815260200160058201548152602001600682015481526020016007820160009054906101000a900460ff161515151581526020016007820160019054906101000a900473ffffffffffffffffffffffffffffffffffffffff1673ffffffffffffffffffffffffffffffffffffffff1673ffffffffffffffffffffffffffffffffffffffff1681526020016007820160159054906101000a900460ff161515151581525050905060008082604001519050600083610100015190508360e00151156118a3578360c0015184608001516116aa9190614d0e565b95506064866116b99190614d93565b965086866116c7919061395f565b9550881561176a578173ffffffffffffffffffffffffffffffffffffffff166108fc85608001519081150290604051600060405180830381858888f19350505050158015611719573d6000803e3d6000fd5b508073ffffffffffffffffffffffffffffffffffffffff166108fc8560c001519081150290604051600060405180830381858888f19350505050158015611764573d6000803e3d6000fd5b5061189e565b8360600151600060028110611782576117816138c4565b5b6020020151600181111561179957611798612d58565b5b600360008c815260200190815260200160002060030160019054906101000a900460ff1660018111156117cf576117ce612d58565b5b14156117e15783604001519250611856565b83606001516001600281106117f9576117f86138c4565b5b602002015160018111156118105761180f612d58565b5b600360008c815260200190815260200160002060030160019054906101000a900460ff16600181111561184657611845612d58565b5b14156118555783610100015192505b5b8273ffffffffffffffffffffffffffffffffffffffff166108fc879081150290604051600060405180830381858888f1935050505015801561189c573d6000803e3d6000fd5b505b6118f3565b836040015173ffffffffffffffffffffffffffffffffffffffff166108fc85608001519081150290604051600060405180830381858888f193505050501580156118f1573d6000803e3d6000fd5b505b6001600460008c8152602001908152602001600020600087815260200190815260200160002060070160156101000a81548160ff02191690831515021790555086600260008282546119459190614d0e565b9250508190555050505050808061195b9061387b565b915050611499565b507f337fadd9c743a9021e68c8be1fac73226ee45fd39ea765aba3bfbcdd8fccb57b600360008781526020019081526020016000206040516119a59190613bf9565b60405180910390a1600360008681526020019081526020016000206000808201600090556001820160006119d99190612a6d565b6002820160006119e99190612a6d565b6003820160006101000a81549060ff02191690556003820160016101000a81549060ff021916905560048201600090555050611a24856128be565b5050505050565b60008054906101000a900473ffffffffffffffffffffffffffffffffffffffff1673ffffffffffffffffffffffffffffffffffffffff163373ffffffffffffffffffffffffffffffffffffffff1614611a8357600080fd5b60006002549050600060028190555060008054906101000a900473ffffffffffffffffffffffffffffffffffffffff1673ffffffffffffffffffffffffffffffffffffffff166108fc829081150290604051600060405180830381858888f19350505050158015611af8573d6000803e3d6000fd5b5050565b6004602052816000526040600020602052806000526040600020600091509150508060000154908060010154908060020160009054906101000a900473ffffffffffffffffffffffffffffffffffffffff16908060040154908060050154908060060154908060070160009054906101000a900460ff16908060070160019054906101000a900473ffffffffffffffffffffffffffffffffffffffff16908060070160159054906101000a900460ff16905089565b60068181548110611bc157600080fd5b906000526020600020016000915090505481565b60008054906101000a900473ffffffffffffffffffffffffffffffffffffffff1673ffffffffffffffffffffffffffffffffffffffff163373ffffffffffffffffffffffffffffffffffffffff161415611c2e57600080fd5b84600360008781526020019081526020016000206000015414611c86576040517f08c379a0000000000000000000000000000000000000000000000000000000008152600401611c7d9061393f565b60405180910390fd5b348414611cc8576040517f08c379a0000000000000000000000000000000000000000000000000000000008152600401611cbf90613dd1565b60405180910390fd5b6000811480611cd75750600181145b611d16576040517f08c379a0000000000000000000000000000000000000000000000000000000008152600401611d0d90613e3d565b60405180910390fd5b611d1e61298a565b600360008781526020019081526020016000206004016000815480929190611d459061387b565b919050555085816000018181525050600360008781526020019081526020016000206004015481602001818152505033816040019073ffffffffffffffffffffffffffffffffffffffff16908173ffffffffffffffffffffffffffffffffffffffff1681525050816001811115611dbf57611dbe612d58565b5b8160600151600060028110611dd757611dd66138c4565b5b60200201906001811115611dee57611ded612d58565b5b90816001811115611e0257611e01612d58565b5b8152505034816080018181525050838160a0018181525050828160c001818152505080600460008881526020019081526020016000206000600360008a8152602001908152602001600020600401548152602001908152602001600020600082015181600001556020820151816001015560408201518160020160006101000a81548173ffffffffffffffffffffffffffffffffffffffff021916908373ffffffffffffffffffffffffffffffffffffffff160217905550606082015181600301906002611ed1929190612aad565b506080820151816004015560a0820151816005015560c0820151816006015560e08201518160070160006101000a81548160ff0219169083151502179055506101008201518160070160016101000a81548173ffffffffffffffffffffffffffffffffffffffff021916908373ffffffffffffffffffffffffffffffffffffffff1602179055506101208201518160070160156101000a81548160ff0219169083151502179055509050507f352410ef8b4fabbef7ca252e41757bf394f439fac41451eeccea4e61f14038c081604051611fab9190614e91565b60405180910390a1505050505050565b60008054906101000a900473ffffffffffffffffffffffffffffffffffffffff1673ffffffffffffffffffffffffffffffffffffffff163373ffffffffffffffffffffffffffffffffffffffff161461201357600080fd5b600160008154809291906120269061387b565b9190505550612033612a13565b60015481600001818152505082816020018190525081816040018190525060008160600190600381111561206a57612069612d58565b5b9081600381111561207e5761207d612d58565b5b8152505060008160a0018181525050806003600060015481526020019081526020016000206000820151816000015560208201518160010190805190602001906120c9929190612b56565b5060408201518160020190805190602001906120e6929190612b56565b5060608201518160030160006101000a81548160ff0219169083600381111561211257612111612d58565b5b021790555060808201518160030160016101000a81548160ff0219169083600181111561214257612141612d58565b5b021790555060a08201518160040155905050600560015490806001815401808255809150506001900390600052602060002001600090919091909150557fdab0fd25f906ea8f3d7bc575fad4607ad37537147502e7be26cefa4c03c76fcd816040516121ae9190613158565b60405180910390a1505050565b60008060009054906101000a900473ffffffffffffffffffffffffffffffffffffffff1673ffffffffffffffffffffffffffffffffffffffff163373ffffffffffffffffffffffffffffffffffffffff16141561221b5760019050612220565b600090505b90565b6060600060058054905067ffffffffffffffff81111561224657612245613493565b5b60405190808252806020026020018201604052801561227f57816020015b61226c612a13565b8152602001906001900390816122645790505b50905060005b6005805490508110156124ad5760036000600583815481106122aa576122a96138c4565b5b906000526020600020015481526020019081526020016000206040518060c0016040529081600082015481526020016001820180546122e890613a22565b80601f016020809104026020016040519081016040528092919081815260200182805461231490613a22565b80156123615780601f1061233657610100808354040283529160200191612361565b820191906000526020600020905b81548152906001019060200180831161234457829003601f168201915b5050505050815260200160028201805461237a90613a22565b80601f01602080910402602001604051908101604052809291908181526020018280546123a690613a22565b80156123f35780601f106123c8576101008083540402835291602001916123f3565b820191906000526020600020905b8154815290600101906020018083116123d657829003601f168201915b505050505081526020016003820160009054906101000a900460ff16600381111561242157612420612d58565b5b600381111561243357612432612d58565b5b81526020016003820160019054906101000a900460ff16600181111561245c5761245b612d58565b5b600181111561246e5761246d612d58565b5b815260200160048201548152505082828151811061248f5761248e6138c4565b5b602002602001018190525080806124a59061387b565b915050612285565b819250505090565b60008060009054906101000a900473ffffffffffffffffffffffffffffffffffffffff1673ffffffffffffffffffffffffffffffffffffffff163373ffffffffffffffffffffffffffffffffffffffff161461251057600080fd5b600254905090565b6060600060068054905067ffffffffffffffff81111561253b5761253a613493565b5b60405190808252806020026020018201604052801561257457816020015b612561612a13565b8152602001906001900390816125595790505b50905060005b6006805490508110156127a257600360006006838154811061259f5761259e6138c4565b5b906000526020600020015481526020019081526020016000206040518060c0016040529081600082015481526020016001820180546125dd90613a22565b80601f016020809104026020016040519081016040528092919081815260200182805461260990613a22565b80156126565780601f1061262b57610100808354040283529160200191612656565b820191906000526020600020905b81548152906001019060200180831161263957829003601f168201915b5050505050815260200160028201805461266f90613a22565b80601f016020809104026020016040519081016040528092919081815260200182805461269b90613a22565b80156126e85780601f106126bd576101008083540402835291602001916126e8565b820191906000526020600020905b8154815290600101906020018083116126cb57829003601f168201915b505050505081526020016003820160009054906101000a900460ff16600381111561271657612715612d58565b5b600381111561272857612727612d58565b5b81526020016003820160019054906101000a900460ff16600181111561275157612750612d58565b5b600181111561276357612762612d58565b5b8152602001600482015481525050828281518110612784576127836138c4565b5b6020026020010181905250808061279a9061387b565b91505061257a565b508091505090565b60008054906101000a900473ffffffffffffffffffffffffffffffffffffffff1681565b600581815481106127de57600080fd5b906000526020600020016000915090505481565b60005b6005805490508110156128ba578160058281548110612817576128166138c4565b5b906000526020600020015414156128a7576005600160058054905061283c919061395f565b8154811061284d5761284c6138c4565b5b90600052602060002001546005828154811061286c5761286b6138c4565b5b9060005260206000200181905550600580548061288c5761288b613993565b5b600190038181906000526020600020016000905590556128ba565b80806128b29061387b565b9150506127f5565b5050565b60005b6006805490508110156129865781600682815481106128e3576128e26138c4565b5b906000526020600020015414156129735760066001600680549050612908919061395f565b81548110612919576129186138c4565b5b906000526020600020015460068281548110612938576129376138c4565b5b9060005260206000200181905550600680548061295857612957613993565b5b60019003818190600052602060002001600090559055612986565b808061297e9061387b565b9150506128c1565b5050565b6040518061014001604052806000815260200160008152602001600073ffffffffffffffffffffffffffffffffffffffff1681526020016129c9612bdc565b8152602001600081526020016000815260200160008152602001600015158152602001600073ffffffffffffffffffffffffffffffffffffffff1681526020016000151581525090565b6040518060c0016040528060008152602001606081526020016060815260200160006003811115612a4757612a46612d58565b5b815260200160006001811115612a6057612a5f612d58565b5b8152602001600081525090565b508054612a7990613a22565b6000825580601f10612a8b5750612aaa565b601f016020900490600052602060002090810190612aa99190612bfe565b5b50565b826002601f01602090048101928215612b455791602002820160005b83821115612b1657835183826101000a81548160ff02191690836001811115612af557612af4612d58565b5b02179055509260200192600101602081600001049283019260010302612ac9565b8015612b435782816101000a81549060ff0219169055600101602081600001049283019260010302612b16565b505b509050612b529190612bfe565b5090565b828054612b6290613a22565b90600052602060002090601f016020900481019282612b845760008555612bcb565b82601f10612b9d57805160ff1916838001178555612bcb565b82800160010185558215612bcb579182015b82811115612bca578251825591602001919060010190612baf565b5b509050612bd89190612bfe565b5090565b6040518060400160405280600290602082028036833780820191505090505090565b5b80821115612c17576000816000905550600101612bff565b5090565b6000819050919050565b612c2e81612c1b565b82525050565b6000602082019050612c496000830184612c25565b92915050565b6000604051905090565b600080fd5b600080fd5b612c6c81612c1b565b8114612c7757600080fd5b50565b600081359050612c8981612c63565b92915050565b600060208284031215612ca557612ca4612c59565b5b6000612cb384828501612c7a565b91505092915050565b600081519050919050565b600082825260208201905092915050565b6000819050602082019050919050565b612cf181612c1b565b82525050565b600073ffffffffffffffffffffffffffffffffffffffff82169050919050565b6000612d2282612cf7565b9050919050565b612d3281612d17565b82525050565b600060029050919050565b600081905092915050565b6000819050919050565b7f4e487b7100000000000000000000000000000000000000000000000000000000600052602160045260246000fd5b60028110612d9857612d97612d58565b5b50565b6000819050612da982612d87565b919050565b6000612db982612d9b565b9050919050565b612dc981612dae565b82525050565b6000612ddb8383612dc0565b60208301905092915050565b6000602082019050919050565b612dfd81612d38565b612e078184612d43565b9250612e1282612d4e565b8060005b83811015612e43578151612e2a8782612dcf565b9650612e3583612de7565b925050600181019050612e16565b505050505050565b60008115159050919050565b612e6081612e4b565b82525050565b61016082016000820151612e7d6000850182612ce8565b506020820151612e906020850182612ce8565b506040820151612ea36040850182612d29565b506060820151612eb66060850182612df4565b506080820151612ec960a0850182612ce8565b5060a0820151612edc60c0850182612ce8565b5060c0820151612eef60e0850182612ce8565b5060e0820151612f03610100850182612e57565b50610100820151612f18610120850182612d29565b50610120820151612f2d610140850182612e57565b50505050565b6000612f3f8383612e66565b6101608301905092915050565b6000602082019050919050565b6000612f6482612cbc565b612f6e8185612cc7565b9350612f7983612cd8565b8060005b83811015612faa578151612f918882612f33565b9750612f9c83612f4c565b925050600181019050612f7d565b5085935050505092915050565b60006040820190508181036000830152612fd18185612f59565b9050612fe06020830184612c25565b9392505050565b600081519050919050565b600082825260208201905092915050565b60005b83811015613021578082015181840152602081019050613006565b83811115613030576000848401525b50505050565b6000601f19601f8301169050919050565b600061305282612fe7565b61305c8185612ff2565b935061306c818560208601613003565b61307581613036565b840191505092915050565b6004811061309157613090612d58565b5b50565b60008190506130a282613080565b919050565b60006130b282613094565b9050919050565b6130c2816130a7565b82525050565b600060c0830160008301516130e06000860182612ce8565b50602083015184820360208601526130f88282613047565b915050604083015184820360408601526131128282613047565b915050606083015161312760608601826130b9565b50608083015161313a6080860182612dc0565b5060a083015161314d60a0860182612ce8565b508091505092915050565b6000602082019050818103600083015261317281846130c8565b905092915050565b600082825260208201905092915050565b600061319682612fe7565b6131a0818561317a565b93506131b0818560208601613003565b6131b981613036565b840191505092915050565b6131cd816130a7565b82525050565b6131dc81612dae565b82525050565b600060c0820190506131f76000830189612c25565b8181036020830152613209818861318b565b9050818103604083015261321d818761318b565b905061322c60608301866131c4565b61323960808301856131d3565b61324660a0830184612c25565b979650505050505050565b60008060006060848603121561326a57613269612c59565b5b600061327886828701612c7a565b935050602061328986828701612c7a565b925050604061329a86828701612c7a565b9150509250925092565b6132ad81612e4b565b81146132b857600080fd5b50565b6000813590506132ca816132a4565b92915050565b6000806000606084860312156132e9576132e8612c59565b5b60006132f786828701612c7a565b9350506020613308868287016132bb565b925050604061331986828701612c7a565b9150509250925092565b6000806040838503121561333a57613339612c59565b5b600061334885828601612c7a565b925050602061335985828601612c7a565b9150509250929050565b61336c81612d17565b82525050565b61337b81612e4b565b82525050565b600061012082019050613397600083018c612c25565b6133a4602083018b612c25565b6133b1604083018a613363565b6133be6060830189612c25565b6133cb6080830188612c25565b6133d860a0830187612c25565b6133e560c0830186613372565b6133f260e0830185613363565b613400610100830184613372565b9a9950505050505050505050565b600080600080600060a0868803121561342a57613429612c59565b5b600061343888828901612c7a565b955050602061344988828901612c7a565b945050604061345a88828901612c7a565b935050606061346b88828901612c7a565b925050608061347c88828901612c7a565b9150509295509295909350565b600080fd5b600080fd5b7f4e487b7100000000000000000000000000000000000000000000000000000000600052604160045260246000fd5b6134cb82613036565b810181811067ffffffffffffffff821117156134ea576134e9613493565b5b80604052505050565b60006134fd612c4f565b905061350982826134c2565b919050565b600067ffffffffffffffff82111561352957613528613493565b5b61353282613036565b9050602081019050919050565b82818337600083830152505050565b600061356161355c8461350e565b6134f3565b90508281526020810184848401111561357d5761357c61348e565b5b61358884828561353f565b509392505050565b600082601f8301126135a5576135a4613489565b5b81356135b584826020860161354e565b91505092915050565b600080604083850312156135d5576135d4612c59565b5b600083013567ffffffffffffffff8111156135f3576135f2612c5e565b5b6135ff85828601613590565b925050602083013567ffffffffffffffff8111156136205761361f612c5e565b5b61362c85828601613590565b9150509250929050565b600060208201905061364b6000830184613372565b92915050565b600081519050919050565b600082825260208201905092915050565b6000819050602082019050919050565b600060c0830160008301516136956000860182612ce8565b50602083015184820360208601526136ad8282613047565b915050604083015184820360408601526136c78282613047565b91505060608301516136dc60608601826130b9565b5060808301516136ef6080860182612dc0565b5060a083015161370260a0860182612ce8565b508091505092915050565b6000613719838361367d565b905092915050565b6000602082019050919050565b600061373982613651565b613743818561365c565b9350836020820285016137558561366d565b8060005b858110156137915784840389528151613772858261370d565b945061377d83613721565b925060208a01995050600181019050613759565b50829750879550505050505092915050565b600060208201905081810360008301526137bd818461372e565b905092915050565b60006020820190506137da6000830184613363565b92915050565b7f496e76616c6964204d6174636800000000000000000000000000000000000000600082015250565b6000613816600d8361317a565b9150613821826137e0565b602082019050919050565b6000602082019050818103600083015261384581613809565b9050919050565b7f4e487b7100000000000000000000000000000000000000000000000000000000600052601160045260246000fd5b600061388682612c1b565b91507fffffffffffffffffffffffffffffffffffffffffffffffffffffffffffffffff8214156138b9576138b861384c565b5b600182019050919050565b7f4e487b7100000000000000000000000000000000000000000000000000000000600052603260045260246000fd5b7f496e76616c6964206d6174636800000000000000000000000000000000000000600082015250565b6000613929600d8361317a565b9150613934826138f3565b602082019050919050565b600060208201905081810360008301526139588161391c565b9050919050565b600061396a82612c1b565b915061397583612c1b565b9250828210156139885761398761384c565b5b828203905092915050565b7f4e487b7100000000000000000000000000000000000000000000000000000000600052603160045260246000fd5b60008160001c9050919050565b6000819050919050565b60006139ec6139e7836139c2565b6139cf565b9050919050565b7f4e487b7100000000000000000000000000000000000000000000000000000000600052602260045260246000fd5b60006002820490506001821680613a3a57607f821691505b60208210811415613a4e57613a4d6139f3565b5b50919050565b60008190508160005260206000209050919050565b60008154613a7681613a22565b613a808186612ff2565b94506001821660008114613a9b5760018114613aad57613ae0565b60ff1983168652602086019350613ae0565b613ab685613a54565b60005b83811015613ad857815481890152600182019150602081019050613ab9565b808801955050505b50505092915050565b600060ff82169050919050565b6000613b09613b04836139c2565b613ae9565b9050919050565b60008160081c9050919050565b600060ff82169050919050565b6000613b3d613b3883613b10565b613b1d565b9050919050565b600060c083016000808401549050613b5b816139d9565b613b686000870182612ce8565b50600184018583036020870152613b7f8382613a69565b925050600284018583036040870152613b988382613a69565b92505060038401549050613bab81613af6565b613bb860608701826130b9565b50613bc281613b2a565b613bcf6080870182612dc0565b5060048401549050613be0816139d9565b613bed60a0870182612ce8565b50819250505092915050565b60006020820190508181036000830152613c138184613b44565b905092915050565b7f496e76616c696420426574000000000000000000000000000000000000000000600082015250565b6000613c51600b8361317a565b9150613c5c82613c1b565b602082019050919050565b60006020820190508181036000830152613c8081613c44565b9050919050565b7f596f752063616e6e6f742061636365707420796f7572206f776e206265740000600082015250565b6000613cbd601e8361317a565b9150613cc882613c87565b602082019050919050565b60006020820190508181036000830152613cec81613cb0565b9050919050565b7f4f70706f6e656e74206861732063686f73656e20746865205465616d00000000600082015250565b6000613d29601c8361317a565b9150613d3482613cf3565b602082019050919050565b60006020820190508181036000830152613d5881613d1c565b9050919050565b7f4265742056616c75652073656e74206e6f7420657175616c20746f20656e747260008201527f7920666565730000000000000000000000000000000000000000000000000000602082015250565b6000613dbb60268361317a565b9150613dc682613d5f565b604082019050919050565b60006020820190508181036000830152613dea81613dae565b9050919050565b7f496e76616c6964205465616d0000000000000000000000000000000000000000600082015250565b6000613e27600c8361317a565b9150613e3282613df1565b602082019050919050565b60006020820190508181036000830152613e5681613e1a565b9050919050565b600073ffffffffffffffffffffffffffffffffffffffff82169050919050565b6000613e90613e8b836139c2565b613e5d565b9050919050565b600060029050919050565b6000819050919050565b6000613ebf613eba836139c2565b613b1d565b9050919050565b60008160101c9050919050565b6000613ee6613ee183613ec6565b613b1d565b9050919050565b60008160181c9050919050565b6000613f0d613f0883613eed565b613b1d565b9050919050565b60008160201c9050919050565b6000613f34613f2f83613f14565b613b1d565b9050919050565b60008160281c9050919050565b6000613f5b613f5683613f3b565b613b1d565b9050919050565b60008160301c9050919050565b6000613f82613f7d83613f62565b613b1d565b9050919050565b60008160381c9050919050565b6000613fa9613fa483613f89565b613b1d565b9050919050565b60008160401c9050919050565b6000613fd0613fcb83613fb0565b613b1d565b9050919050565b60008160481c9050919050565b6000613ff7613ff283613fd7565b613b1d565b9050919050565b60008160501c9050919050565b600061401e61401983613ffe565b613b1d565b9050919050565b60008160581c9050919050565b600061404561404083614025565b613b1d565b9050919050565b60008160601c9050919050565b600061406c6140678361404c565b613b1d565b9050919050565b60008160681c9050919050565b600061409361408e83614073565b613b1d565b9050919050565b60008160701c9050919050565b60006140ba6140b58361409a565b613b1d565b9050919050565b60008160781c9050919050565b60006140e16140dc836140c1565b613b1d565b9050919050565b60008160801c9050919050565b6000614108614103836140e8565b613b1d565b9050919050565b60008160881c9050919050565b600061412f61412a8361410f565b613b1d565b9050919050565b60008160901c9050919050565b600061415661415183614136565b613b1d565b9050919050565b60008160981c9050919050565b600061417d6141788361415d565b613b1d565b9050919050565b60008160a01c9050919050565b60006141a461419f83614184565b613b1d565b9050919050565b60008160a81c9050919050565b60006141cb6141c6836141ab565b613b1d565b9050919050565b60008160b01c9050919050565b60006141f26141ed836141d2565b613b1d565b9050919050565b60008160b81c9050919050565b6000614219614214836141f9565b613b1d565b9050919050565b60008160c01c9050919050565b600061424061423b83614220565b613b1d565b9050919050565b60008160c81c9050919050565b600061426761426283614247565b613b1d565b9050919050565b60008160d01c9050919050565b600061428e6142898361426e565b613b1d565b9050919050565b60008160d81c9050919050565b60006142b56142b083614295565b613b1d565b9050919050565b60008160e01c9050919050565b60006142dc6142d7836142bc565b613b1d565b9050919050565b60008160e81c9050919050565b60006143036142fe836142e3565b613b1d565b9050919050565b60008160f01c9050919050565b600061432a6143258361430a565b613b1d565b9050919050565b60008160f81c9050919050565b600061435161434c83614331565b613b1d565b9050919050565b61436181613e97565b61436b8184612d43565b92508261437783613ea2565b600080156146a3575b836001602003820110156146a25781546143a28761439d83613eac565b612dc0565b6020870196506143ba876143b583613b2a565b612dc0565b6020870196506143d2876143cd83613ed3565b612dc0565b6020870196506143ea876143e583613efa565b612dc0565b602087019650614402876143fd83613f21565b612dc0565b60208701965061441a8761441583613f48565b612dc0565b6020870196506144328761442d83613f6f565b612dc0565b60208701965061444a8761444583613f96565b612dc0565b6020870196506144628761445d83613fbd565b612dc0565b60208701965061447a8761447583613fe4565b612dc0565b6020870196506144928761448d8361400b565b612dc0565b6020870196506144aa876144a583614032565b612dc0565b6020870196506144c2876144bd83614059565b612dc0565b6020870196506144da876144d583614080565b612dc0565b6020870196506144f2876144ed836140a7565b612dc0565b60208701965061450a87614505836140ce565b612dc0565b6020870196506145228761451d836140f5565b612dc0565b60208701965061453a876145358361411c565b612dc0565b6020870196506145528761454d83614143565b612dc0565b60208701965061456a876145658361416a565b612dc0565b6020870196506145828761457d83614191565b612dc0565b60208701965061459a87614595836141b8565b612dc0565b6020870196506145b2876145ad836141df565b612dc0565b6020870196506145ca876145c583614206565b612dc0565b6020870196506145e2876145dd8361422d565b612dc0565b6020870196506145fa876145f583614254565b612dc0565b6020870196506146128761460d8361427b565b612dc0565b60208701965061462a87614625836142a2565b612dc0565b6020870196506146428761463d836142c9565b612dc0565b60208701965061465a87614655836142f0565b612dc0565b6020870196506146728761466d83614317565b612dc0565b60208701965061468a876146858361433e565b612dc0565b60208701965060018301925050602081019050614380565b5b600115614b6e5781546001156146d2576146c5876146c083613eac565b612dc0565b6020870196506001820191505b6001156146f8576146eb876146e683613b2a565b612dc0565b6020870196506001820191505b60001561471e576147118761470c83613ed3565b612dc0565b6020870196506001820191505b600015614744576147378761473283613efa565b612dc0565b6020870196506001820191505b60001561476a5761475d8761475883613f21565b612dc0565b6020870196506001820191505b600015614790576147838761477e83613f48565b612dc0565b6020870196506001820191505b6000156147b6576147a9876147a483613f6f565b612dc0565b6020870196506001820191505b6000156147dc576147cf876147ca83613f96565b612dc0565b6020870196506001820191505b600015614802576147f5876147f083613fbd565b612dc0565b6020870196506001820191505b6000156148285761481b8761481683613fe4565b612dc0565b6020870196506001820191505b60001561484e576148418761483c8361400b565b612dc0565b6020870196506001820191505b600015614874576148678761486283614032565b612dc0565b6020870196506001820191505b60001561489a5761488d8761488883614059565b612dc0565b6020870196506001820191505b6000156148c0576148b3876148ae83614080565b612dc0565b6020870196506001820191505b6000156148e6576148d9876148d4836140a7565b612dc0565b6020870196506001820191505b60001561490c576148ff876148fa836140ce565b612dc0565b6020870196506001820191505b6000156149325761492587614920836140f5565b612dc0565b6020870196506001820191505b6000156149585761494b876149468361411c565b612dc0565b6020870196506001820191505b60001561497e576149718761496c83614143565b612dc0565b6020870196506001820191505b6000156149a457614997876149928361416a565b612dc0565b6020870196506001820191505b6000156149ca576149bd876149b883614191565b612dc0565b6020870196506001820191505b6000156149f0576149e3876149de836141b8565b612dc0565b6020870196506001820191505b600015614a1657614a0987614a04836141df565b612dc0565b6020870196506001820191505b600015614a3c57614a2f87614a2a83614206565b612dc0565b6020870196506001820191505b600015614a6257614a5587614a508361422d565b612dc0565b6020870196506001820191505b600015614a8857614a7b87614a7683614254565b612dc0565b6020870196506001820191505b600015614aae57614aa187614a9c8361427b565b612dc0565b6020870196506001820191505b600015614ad457614ac787614ac2836142a2565b612dc0565b6020870196506001820191505b600015614afa57614aed87614ae8836142c9565b612dc0565b6020870196506001820191505b600015614b2057614b1387614b0e836142f0565b612dc0565b6020870196506001820191505b600015614b4657614b3987614b3483614317565b612dc0565b6020870196506001820191505b600015614b6c57614b5f87614b5a8361433e565b612dc0565b6020870196506001820191505b505b505050505050565b600060ff82169050919050565b6000614b96614b91836139c2565b614b76565b9050919050565b6000614bb0614bab83613b10565b613e5d565b9050919050565b6000614bca614bc5836141ab565b614b76565b9050919050565b61016082016000808301549050614be7816139d9565b614bf46000860182612ce8565b5060018301549050614c05816139d9565b614c126020860182612ce8565b5060028301549050614c2381613e7d565b614c306040860182612d29565b5060038301614c426060860182614358565b5060048301549050614c53816139d9565b614c6060a0860182612ce8565b5060058301549050614c71816139d9565b614c7e60c0860182612ce8565b5060068301549050614c8f816139d9565b614c9c60e0860182612ce8565b5060078301549050614cad81614b83565b614cbb610100860182612e57565b50614cc581614b9d565b614cd3610120860182612d29565b50614cdd81614bb7565b614ceb610140860182612e57565b5050505050565b600061016082019050614d086000830184614bd1565b92915050565b6000614d1982612c1b565b9150614d2483612c1b565b9250827fffffffffffffffffffffffffffffffffffffffffffffffffffffffffffffffff03821115614d5957614d5861384c565b5b828201905092915050565b7f4e487b7100000000000000000000000000000000000000000000000000000000600052601260045260246000fd5b6000614d9e82612c1b565b9150614da983612c1b565b925082614db957614db8614d64565b5b828204905092915050565b61016082016000820151614ddb6000850182612ce8565b506020820151614dee6020850182612ce8565b506040820151614e016040850182612d29565b506060820151614e146060850182612df4565b506080820151614e2760a0850182612ce8565b5060a0820151614e3a60c0850182612ce8565b5060c0820151614e4d60e0850182612ce8565b5060e0820151614e61610100850182612e57565b50610100820151614e76610120850182612d29565b50610120820151614e8b610140850182612e57565b50505050565b600061016082019050614ea76000830184614dc4565b9291505056fea26469706673582212206b8474194b9a07c7eb06f0ac996d7de91fe240eb14d0aaf340a0fea00c2b353364736f6c63430008090033",
  "immutableReferences": {},
  "source": "//SPDX-License-Identifier: UNLICENSED\r\npragma solidity 0.8.9;\r\npragma experimental ABIEncoderV2;\r\n\r\n//ABIEncoderV2 allows to use struct as function parameters\r\n\r\ncontract CricEther {\r\n    // To store current state of match\r\n    enum MatchState {\r\n        Upcoming,\r\n        Live,\r\n        Win,\r\n        Draw\r\n    }\r\n\r\n    // To store Team choices of players in, and refer winner.\r\n    enum Team {\r\n        Team1,\r\n        Team2\r\n    }\r\n\r\n    // Struct to store data of each match. A match can only be added by Admin.\r\n    struct Match {\r\n        uint256 matchId; // Unique Match ID. Starting from 1, will be incremented for every new match added.\r\n        string team1; // Team 1 name.\r\n        string team2; // Team 2 name.\r\n        MatchState state; // Enum to store match state.\r\n        Team winner; // Enum to store winning Team, This should only be assigned if the match state is set to Win.\r\n        uint256 totalBets; // To track total number of bets posted for this match. This will also be used to generate Unique bet ID.\r\n    }\r\n\r\n    // Struct to store bet placed on each match. A bet can only be posted by user. Each match can have multiple bets posted by users.\r\n    struct Bet {\r\n        uint256 matchId; // Unique Match ID. This match ID should be valid i.e., created by Admin.\r\n        uint256 betId; // Unique Bet ID. Starting from 1, will be incremented for every new bet posted by users for the above match ID.\r\n        address payable postedBy; // Address of the account using which the bet was posted -> Player 1.\r\n        Team[2] playerTeamChoice; // Enum of team choice, index 0 -> Choice of player who posted the bet, index 1 -> choice of player who accepted the bet.\r\n        uint256 player1Entry; // Entry fees of player 1.\r\n        uint256 ratio; // Ratio -> player1Entry : player2Entry\r\n        uint256 player2Entry; // Entry fees of player 2.\r\n        bool accepted; // Boolean to check whether the bet was accepted by any player.\r\n        address payable acceptedBy; // Address of the account using which the bet was accepted -> Player 2.\r\n        bool isTransferred; // Boolean to check whether the money was transferred to winner.\r\n    }\r\n\r\n    address payable public admin; // Address of admin to restrict admin features.\r\n    uint256 matchNo; // To track total number of matches and assign match ID to each match.\r\n    uint256 commission; // 1% of prize money is charged as commission fee.\r\n\r\n    mapping(uint256 => Match) public matches; // Mapping which maps Match ID to Match structs.\r\n    mapping(uint256 => mapping(uint256 => Bet)) public bets; // Nested Mapping which maps (Match ID) => (Bet ID) => (Bet struct).\r\n    uint256[] public upcomingMatches; // Array which stores match IDs of Upcoming matches.\r\n    uint256[] public liveMatches; // Array which stores match IDs of Live matches\r\n\r\n    // Events\r\n    event matchAdded(Match);\r\n    event betAdded(Bet);\r\n    event betAccepted(Bet);\r\n    event matchLive(Match);\r\n    event matchDeclared(Match);\r\n\r\n    // Modifiers\r\n    modifier onlyAdmin() {\r\n        require(msg.sender == admin);\r\n        _;\r\n    }\r\n\r\n    modifier notAdmin() {\r\n        require(msg.sender != admin);\r\n        _;\r\n    }\r\n\r\n    // Constructor\r\n    constructor() {\r\n        admin = payable(msg.sender);\r\n        matchNo = 0;\r\n    }\r\n\r\n    // To check the user account is Admin account or not.\r\n    function isAdmin() public view returns (bool) {\r\n        if (msg.sender == admin) return true;\r\n        else return false;\r\n    }\r\n\r\n    // Admin adds a new match on which users can post bets. The match state is set to Upcoming bby default which can be changed to Live using setLive() function.\r\n    function addmatch(string memory _team1, string memory _team2)\r\n        public\r\n        onlyAdmin\r\n    {\r\n        matchNo++;\r\n        Match memory _match;\r\n        _match.matchId = matchNo;\r\n        _match.team1 = _team1;\r\n        _match.team2 = _team2;\r\n        _match.state = MatchState.Upcoming;\r\n        _match.totalBets = 0;\r\n        matches[matchNo] = _match; // Add to matches mapping.\r\n        upcomingMatches.push(matchNo); // Add match ID to upcoming matches.\r\n        emit matchAdded(_match);\r\n    }\r\n\r\n    // To get details for a particular match using match ID.\r\n    function getMatch(uint256 _matchId) public view returns (Match memory) {\r\n        require(matches[_matchId].matchId == _matchId, \"Invalid match\");\r\n        return matches[_matchId];\r\n    }\r\n\r\n    // To get details of all Upcoming matches.\r\n    function getUpcomingMatches() public view returns (Match[] memory) {\r\n        Match[] memory _matches = new Match[](upcomingMatches.length);\r\n        uint256 i;\r\n        for (i = 0; i < upcomingMatches.length; i++) {\r\n            _matches[i] = matches[upcomingMatches[i]];\r\n        }\r\n        return _matches;\r\n    }\r\n\r\n    // To get details of all Live matches.\r\n    function getLiveMatches() public view returns (Match[] memory) {\r\n        Match[] memory _matches = new Match[](liveMatches.length);\r\n        for (uint256 i = 0; i < liveMatches.length; i++) {\r\n            _matches[i] = matches[liveMatches[i]];\r\n        }\r\n        return _matches;\r\n    }\r\n\r\n    // A user can post a Bet, Another user can accept this Bet to complete a trade.\r\n    // A payable function where the player who posts the bet has to send money equal to the entry fee mentioned at the front end.\r\n    //_team is received as 0 or 1, #0 -> Team 1,  #1 -> Team 2\r\n    function postBet(\r\n        uint256 _matchId,\r\n        uint256 _player1Entry,\r\n        uint256 _ratio,\r\n        uint256 _player2Entry,\r\n        uint256 _team\r\n    ) public payable notAdmin {\r\n        require(matches[_matchId].matchId == _matchId, \"Invalid match\");\r\n        require(\r\n            _player1Entry == msg.value,\r\n            \"Bet Value sent not equal to entry fees\"\r\n        );\r\n        require(_team == 0 || _team == 1, \"Invalid Team\");\r\n        Bet memory _bet;\r\n        matches[_matchId].totalBets++;\r\n        _bet.matchId = _matchId;\r\n        _bet.betId = matches[_matchId].totalBets;\r\n        _bet.postedBy = payable(msg.sender);\r\n        _bet.playerTeamChoice[0] = Team(_team);\r\n        _bet.player1Entry = msg.value;\r\n        _bet.ratio = _ratio;\r\n        _bet.player2Entry = _player2Entry;\r\n        bets[_matchId][matches[_matchId].totalBets] = _bet; // Add to bets mapping using Match ID and Bet ID i.e., (Match ID) => (Bet ID) => (Bet struct).\r\n        emit betAdded(_bet);\r\n    }\r\n\r\n    // To fetch all bets posted for a particular Match. This can be used to display on front end for users.\r\n    // The bets that are already accepted will not be returned.\r\n    function getBets(uint256 _matchId)\r\n        public\r\n        view\r\n        returns (Bet[] memory, uint256)\r\n    {\r\n        require(matches[_matchId].matchId == _matchId, \"Invalid Match\");\r\n        Bet[] memory _bets = new Bet[](matches[_matchId].totalBets);\r\n        uint256 _count = 0;\r\n        for (uint256 i = 1; i <= matches[_matchId].totalBets; i++) {\r\n            if (!bets[_matchId][i].accepted)\r\n                _bets[_count++] = bets[_matchId][i];\r\n        }\r\n        return (_bets, _count);\r\n    }\r\n\r\n    // An user can accept an already posted bet, by checking the ratio and returns.\r\n    // The user who posted a bet cannot accept his own bet.\r\n    function acceptBet(\r\n        uint256 _matchId,\r\n        uint256 _betId,\r\n        uint256 _team\r\n    ) public payable notAdmin {\r\n        require(matches[_matchId].matchId == _matchId, \"Invalid match\");\r\n        require(bets[_matchId][_betId].betId == _betId, \"Invalid Bet\");\r\n        require(\r\n            bets[_matchId][_betId].postedBy != msg.sender,\r\n            \"You cannot accept your own bet\"\r\n        );\r\n        require(\r\n            bets[_matchId][_betId].playerTeamChoice[0] != Team(_team),\r\n            \"Opponent has chosen the Team\"\r\n        );\r\n        require(\r\n            bets[_matchId][_betId].player2Entry == msg.value,\r\n            \"Bet Value sent not equal to entry fees\"\r\n        );\r\n        require(_team == 0 || _team == 1, \"Invalid Team\");\r\n        bets[_matchId][_betId].playerTeamChoice[1] = Team(_team);\r\n        bets[_matchId][_betId].acceptedBy = payable(msg.sender);\r\n        bets[_matchId][_betId].accepted = true;\r\n\r\n        emit betAccepted(bets[_matchId][_betId]);\r\n    }\r\n\r\n    // To set a match from Upcoming state to Live state.\r\n    // Delete from Upcoming matches array and add to Live matches array.\r\n    function setLive(uint256 _matchId) public onlyAdmin {\r\n        require(matches[_matchId].matchId == _matchId, \"Invalid match\");\r\n        matches[_matchId].state = MatchState.Live;\r\n        liveMatches.push(_matchId);\r\n        for (uint256 i = 0; i < upcomingMatches.length; i++) {\r\n            if (upcomingMatches[i] == _matchId) {\r\n                upcomingMatches[i] = upcomingMatches[\r\n                    upcomingMatches.length - 1\r\n                ];\r\n                upcomingMatches.pop();\r\n                break;\r\n            }\r\n        }\r\n        deleteUpcomingMatch(_matchId);\r\n        emit matchLive(matches[_matchId]);\r\n    }\r\n\r\n    // Admin ends and declares a Match's result i.e., Win or Draw.\r\n    // The money is transferred to the winners by deducting 1% commission charge.\r\n    // In case of draw or the bet was not accepted by another player, then the money is refunded.\r\n    function endMatch(\r\n        uint256 _matchId,\r\n        bool isDraw,\r\n        uint256 _winner\r\n    ) public onlyAdmin {\r\n        require(matches[_matchId].matchId == _matchId, \"Invalid match\");\r\n        require(_winner == 0 || _winner == 1, \"Invalid Team\");\r\n        uint256 _commission;\r\n        uint256 _prizeMoney;\r\n        if (isDraw) {\r\n            matches[_matchId].state = MatchState.Draw;\r\n        } else {\r\n            matches[_matchId].state = MatchState.Win;\r\n            if (_winner == 0) matches[_matchId].winner = Team.Team1;\r\n            else matches[_matchId].winner = Team.Team2;\r\n        }\r\n\r\n        for (uint256 i = 1; i <= matches[_matchId].totalBets; i++) {\r\n            Bet memory bet = bets[_matchId][i];\r\n            address payable _winnerAddress;\r\n            address payable p1 = bet.postedBy;\r\n            address payable p2 = bet.acceptedBy;\r\n\r\n            if (bet.accepted) {\r\n                _prizeMoney = bet.player1Entry + bet.player2Entry;\r\n                _commission = _prizeMoney / 100;\r\n                _prizeMoney = _prizeMoney - _commission;\r\n                if (isDraw) {\r\n                    p1.transfer(bet.player1Entry);\r\n                    p2.transfer(bet.player2Entry);\r\n                } else {\r\n                    if (matches[_matchId].winner == bet.playerTeamChoice[0]) {\r\n                        _winnerAddress = bet.postedBy;\r\n                    } else if (\r\n                        matches[_matchId].winner == bet.playerTeamChoice[1]\r\n                    ) {\r\n                        _winnerAddress = bet.acceptedBy;\r\n                    }\r\n                    _winnerAddress.transfer(_prizeMoney);\r\n                }\r\n            } else {\r\n                (bet.postedBy).transfer(bet.player1Entry);\r\n            }\r\n\r\n            bets[_matchId][i].isTransferred = true;\r\n            commission += _commission;\r\n        }\r\n        emit matchDeclared(matches[_matchId]);\r\n        delete matches[_matchId];\r\n        deleteLiveMatch(_matchId);\r\n    }\r\n\r\n    // Delete a match form Live Matches array.\r\n    function deleteLiveMatch(uint256 _matchId) internal {\r\n        for (uint256 i = 0; i < liveMatches.length; i++) {\r\n            if (liveMatches[i] == _matchId) {\r\n                liveMatches[i] = liveMatches[liveMatches.length - 1];\r\n                liveMatches.pop();\r\n                break;\r\n            }\r\n        }\r\n    }\r\n\r\n    // Delete a match from Upcoming Matches array.\r\n    function deleteUpcomingMatch(uint256 _matchId) internal {\r\n        for (uint256 i = 0; i < upcomingMatches.length; i++) {\r\n            if (upcomingMatches[i] == _matchId) {\r\n                upcomingMatches[i] = upcomingMatches[\r\n                    upcomingMatches.length - 1\r\n                ];\r\n                upcomingMatches.pop();\r\n                break;\r\n            }\r\n        }\r\n    }\r\n\r\n    // To withdraw the commission earned to the Admin Account.\r\n    function adminWithdrawCommission() public payable onlyAdmin {\r\n        uint256 _commission = commission;\r\n        commission = 0;\r\n        admin.transfer(_commission);\r\n    }\r\n\r\n    // To fetch the amount of commission earned.\r\n    function getCommission() public view onlyAdmin returns (uint256) {\r\n        return commission;\r\n    }\r\n\r\n    // To fetch the Balance of the contract.\r\n    function getBalance() public view onlyAdmin returns (uint256) {\r\n        return address(this).balance;\r\n    }\r\n}\r\n",
  "sourcePath": "C:\\Users\\shiva\\OneDrive\\Desktop\\Blockchain\\CricEther\\contracts\\CricEther.sol",
  "compiler": {
    "name": "solc",
    "version": "0.8.9+commit.e5eed63a.Emscripten.clang"
  },
  "schemaVersion": "3.4.3",
  "updatedAt": "2021-11-07T08:30:10.652Z",
  "networkType": "ethereum",
  "devdoc": {
    "kind": "dev",
    "methods": {},
    "version": 1
  },
  "userdoc": {
    "kind": "user",
    "methods": {},
    "version": 1
  }
}